:020000040800F2
:10000000080800204D020008931D00085D16000836
:10001000911D00085F040008872000080000000010
:10002000000000000000000000000000971D000814
:100030006104000800000000951D00080D1E000866
:1000400067020008670200086702000867020008EC
:1000500067020008670200086702000867020008DC
:1000600067020008670200086702000867020008CC
:1000700067020008670200086702000867020008BC
:1000800067020008670200086702000867020008AC
:10009000670200086702000867020008670200089C
:1000A000670200086702000867020008670200088C
:1000B000670200086702000867020008670200087C
:1000C000670200086702000867020008670200086C
:1000D000670200086702000867020008670200085C
:1000E000670200086702000867020008670200084C
:1000F000670200086702000867020008670200083C
:10010000670200086702000867020008670200082B
:10011000670200086702000867020008670200081B
:10012000670200086702000867020008670200080B
:1001300067020008670200086702000867020008FB
:1001400067020008670200086702000867020008EB
:1001500067020008670200086702000867020008DB
:1001600067020008670200086702000867020008CB
:10017000670200086702000867020008000000002C
:1001800067020008670200086702000867020008AB
:10019000670200086702000867020008670200089B
:1001A00067020008670200086702000800F002F812
:1001B00000F03CF80AA090E8000C82448344AAF1C5
:1001C0000107DA4501D100F031F8AFF2090EBAE8C3
:1001D0000F0013F0010F18BFFB1A43F0010318477B
:1001E000903E0000B03E0000103A24BF78C878C1AD
:1001F000FAD8520724BF30C830C144BF04680C602D
:10020000704700000023002400250026103A28BF74
:1002100078C1FBD8520728BF30C148BF0B60704778
:100220001FB503F036FE1FBD10B510BD00F0E2F89B
:100230001146FFF7F5FF02F0FDFF00F000F903B4EF
:10024000FFF7F2FF03BC00F003F900000948804704
:1002500009480047FEE7FEE7FEE7FEE7FEE7FEE7A8
:10026000FEE7FEE7FEE7FEE704480549054A064BC0
:1002700070470000A91E0008AD0100080802002018
:1002800008080020080400200804002053EA020C9B
:1002900000F069802DE9F04B4FF00006002B1FBFE6
:1002A000B3FA83F503FA05F424FA05F65E4012BFAB
:1002B0001643B2FA82F502FA05F4C5F120051EBF15
:1002C00022FA05FC44EA0C04203556EA044C4FEAB5
:1002D000144418BF641C4FF000084FF0000990420E
:1002E00071EB030C39D3002919BFB1FA81F701FA78
:1002F00007F6B0FA80F700FA07F6C7F120071EBF2D
:1003000020FA07FC46EA0C062037B6FBF4FCA7EB04
:100310000507103F07F01F0BCBF120060CFA0BFB73
:100320002CFA06F644BFB3460026202FA4BF5E4633
:100330004FF0000B5BEA060C08BF4FF0010B19EB06
:100340000B09ABFB027C48EB0608C01B06FB02CC8A
:100350000BFB03CC71EB0C01C1E70B460246414697
:100360004846BDE8F08B13B54FF000004FF0000198
:10037000AFF30080BDE81C4070474FF0000200B5AD
:10038000134694469646203922BFA0E80C50A0E8B8
:100390000C50B1F12001BFF4F7AF090728BFA0E866
:1003A0000C5048BF0CC05DF804EB890028BF40F832
:1003B000042B08BF704748BF20F8022B11F0804F74
:1003C00018BF00F8012B704770477047704710B591
:1003D00000F008F8006810BD10B5044600F002F8FF
:1003E000046010BD00487047A80100200048704715
:1003F000A80100207546FFF7F9FFAE4605006946E3
:10040000534620F00700854618B020B5FFF72CFFB3
:10041000BDE820404FF000064FF000074FF0000805
:100420004FF0000B21F00701AC46ACE8C009ACE886
:10043000C009ACE8C009ACE8C0098D46704710B5EA
:100440000446AFF300802046BDE81040FFF7F7BE3A
:1004500001491820ABBEFEE7260002007047FEE708
:10046000704772B6FEE7000070B5044600F02EF942
:100470000546601C02D004480078044400F026F9C8
:10048000401BA042FAD370BD040000202DE9F84FB4
:10049000DFF8F8A10022012403254FF00F090AF12B
:1004A000040BAAF1040E00BF0B6804FA02F63340F5
:1004B000B34270D10F7907F00307012F01D0022F4B
:1004C00016D187684FEA420805FA08FC27EA0C07AC
:1004D000D1F80CC00CFA08FC4CEA070CC0F808C0B4
:1004E0004768B7430E79C6F3001696403E43466010
:1004F0000E79F643B6070AD0C7684FEA420C05FAF0
:100500000CF6B7438E6806FA0CF63E43C6600E79C9
:1005100006F00306022E10D1D60800EB8608D8F8A4
:10052000206057074FEAD76C09FA0CF7BE430F69F2
:1005300007FA0CF73743C8F8207006684FEA420CF8
:1005400005FA0CF7BE430F7907F0030707FA0CF71B
:10055000374307604E6816F4403F1CD04C4E376856
:1005600047F480473760366822F0030706F4804678
:100570000096484E07EB060CDCF8086897073F0F1B
:1005800009FA07F826EA0806DFF80C81404503D18E
:100590004FF0000841E072E0DFF80081404502D1F1
:1005A0004FF0010839E0DFF8F880404502D14FF004
:1005B000020832E0DFF8EC80404502D14FF003083A
:1005C0002BE0DFF8E480404502D14FF0040824E03E
:1005D000DFF8D880404502D14FF005081DE0DFF874
:1005E000D080404502D14FF0060816E0DFF8C48005
:1005F000404502D14FF007080FE0DFF8BC804045CE
:1006000002D14FF0080808E0DFF8B080404502D181
:100610004FF0090801E04FF00A0808FA07F848EA25
:100620000608CCF80888DAF800605746D1F804C00C
:100630009E435FEACC2C00D51E433E60DBF8006091
:100640005F46D1F804C09E435FEA8C2C00D51E4360
:100650003E60DEF800607746D1F804C09E435FEA52
:100660008C3C00D51E433E60084F083F3E68D1F8E1
:1006700004C09E435FEACC3C00D51E433E60521C42
:10068000102AFFF411AFBDE8F88F0000083C0140CC
:1006900044380240003001400000024000040240A3
:1006A00000080240000C024000100240001402400A
:1006B00000180240001C02400020024000240240BA
:1006C0000AB1816170470904FBE7000001488068B6
:1006D000704700000400002090F83D20202A01D03F
:1006E00002207047242280F83D200268136823F01E
:1006F000010313600268536A23F010035362026817
:10070000536A0B43536201680A6842F001020A60AF
:10071000202180F83D100020704790F83D20202ACD
:1007200001D002207047242280F83D20026813681F
:1007300023F00103136003685A6A22F00F020A4390
:1007400091B2596201680A6842F001020A602021F0
:1007500080F83D100020704770B5040025D094F853
:100760003D00002520B984F83C50204600F008FBED
:10077000242084F83D002068016821F00101016017
:100780002068016841F4004101602068016821F49B
:100790000041016000F090FC4D4A6168914201D82F
:1007A0004C4900E04C49884201D2012070BD4B49C0
:1007B0002368B0FBF1F15E6826F03F060E435E60F1
:1007C0006368934206D94FF4967359434FF47A7392
:1007D000B1FBF3F12368491C1E6A26F03F06314342
:1007E00019626168914210D84900401EB0FBF1F2D5
:1007F000521CC2F30B02042A01D2042022E0B0FBF7
:10080000F1F0401CC0F30B001CE0A268F2B301EB56
:10081000C10303EB0116431EB3FBF6F35B1C43F469
:1008200080431B0549D092B301EBC10202EB0111D9
:10083000401EB0FBF1F0401CC0F30B0040F48040C0
:1008400040F400402168CA694CF6FF739A43104394
:10085000C861D4E9071001432068026822F0C00291
:1008600011430160D4E9030101432068826848F222
:10087000FF339A4311438160D4E90501084321689D
:10088000CA6822F0FF021043C86001E00EE016E0E3
:100890002068016841F0010101602564202084F88E
:1008A0003D00256384F83E50002070BD01EB4106F9
:1008B000431EB3FBF6F35B1CB3E70120C2E701EB79
:1008C0004101401EB0FBF1F0401CC0F30B00B7E744
:1008D000A086010080841E0000093D0040420F00F8
:1008E0002DE9FF4F81B089460446FFF7EFFE05462C
:1008F00094F83D004FF0000820287DD119230122F3
:1009000050492046009500F0BFFF002874D194F8AC
:100910003C00012870D0012084F83C002068016868
:10092000C90703D1016841F0010101602068016835
:1009300021F400610160242084F83D000026266433
:100940004148E0624FF0011B20272068016841F414
:10095000807101600095002259462046049B00F0FA
:1009600093FF50B120680068C00502D54FF40070B5
:100970002064032005B0BDE8F08F216809F0FE0077
:100980000861FFF7A3FE2168054648694969C0F37D
:100990004000C1F380214FF0A00A0FE0FFF796FE60
:1009A000411B0498814200D808B984F83DA0216811
:1009B00048694969C0F34000C1F3802194F83D20A3
:1009C000A02A02D008B90029E8D084F83D70206838
:1009D0004169C943890716D4016841F40071016077
:1009E0002068416980691923012216492046009533
:1009F00000F04AFFB8B900E021E084F83D7084F8C7
:100A00003C600020B6E7016841F400710160216894
:100A10006FF480604861192301220A49204600953D
:100A200000F032FF08B10120A4E7039808F10108A3
:100A300080458AD384F83D7084F83C60F3E7022057
:100A400098E70000020010000000FFFF2DE9FF4FB3
:100A500083B09A46DDE9118793460446DDF840905D
:100A6000FFF734FE054694F83D00202870D1192385
:100A7000012274492046009500F006FF0028F5D1B8
:100A800094F83C00012863D0012084F83C002068E1
:100A90000168C90703D1016841F0010101602068C4
:100AA000016821F400610160222084F83D004020AB
:100AB00084F83E0000262664C4F82490A4F82A8016
:100AC000608D20856048E062CDE9007553465A4646
:100AD0002046049900F0DAFD002879D1208DD0B1AC
:100AE000012821D00228206824D041698069009023
:100AF000208D032866D801282BD0544902283B4674
:100B00004FF00002009557D08846204600F0BCFE0A
:100B100000285DD13AE0206841698169009101684F
:100B200041F4007101607DE02068016821F480617A
:100B30000160F0E7016821F48061016020680168CC
:100B400041F400610160206841698069009069E0BA
:100B500075E02A463946204600F03CFF88BB54E049
:100B60002068016841F40071016020680069616AD1
:100B70000870606A401C6062218D491E2185618D6C
:100B8000491E618521680969017042E02068016899
:100B900021F48061016020680069616A0870606A00
:100BA000401C6062208D401E2085608D401E608547
:100BB0003B46002241460095204600F065FE00B904
:100BC000CEE705E02A463946204600F003FF18B17B
:100BD000012007B0BDE8F08F20680069616A0870E5
:100BE000606A401C6062208D401E81B22185608D4C
:100BF000401E608520684269D243520712D40329FF
:100C000003D1016821F48061016020680069616A94
:100C10000870606A401C6062208D401E2085608DD7
:100C2000401E6085208D00287FF462AF202084F86C
:100C30003D0084F83E6084F83C600020C9E7022053
:100C4000C7E70000020010000000FFFF04000100E1
:100C50002DE9FF4F83B09A46DDE91197934604468C
:100C6000DDF84080FFF732FD054694F83D0020286E
:100C70007FD11923012240492046009500F004FE4F
:100C8000002876D194F83C00012872D0012084F825
:100C90003C0020680168C90703D1016841F00101E7
:100CA00001602068016821F400610160212084F85E
:100CB0003D00402084F83E0000262664C4F82480CD
:100CC000A4F82A90608D20852C48E062CDE900755B
:100CD00053465A462046049900F056FD70B930E05C
:100CE0002A463946204600F0ADFE58B1206C042853
:100CF00004D12068016841F400710160012007B04F
:100D0000BDE8F08F606A216800780861606A401C65
:100D10006062218D491E89B22185628D521E6285D5
:100D200022685369DB435B070BD469B1007810611B
:100D3000606A401C6062208D401E2085608D401ED0
:100D40006085208D0028CBD12A463946204600F008
:100D50006FFD0028CAD154F83D0B016841F40071C1
:100D60000160202004F81E09E67766770020C6E7B8
:100D7000FFE70220C3E70000020010000000FFFFB1
:100D80002DE9F04186B0044614216846FFF7F5FAD4
:100D90002268314C2F4B00252F48122603270421AF
:100DA00010349A4219D1026842F0020202600068CF
:100DB000029500F002000590CDE90371C020CDE955
:100DC000000669462548FFF761FB206840F40010E3
:100DD0002060206800F4001037E0214B9A4235D1A2
:100DE000226842F400022260226802F400020592A6
:100DF000026842F004020260026802F004020592F6
:100E0000026842F0010202600068884600F00100BA
:100E100005905815CDE9000602AA694682E8A001AE
:100E20001048FFF733FB4FF48070CDE9000602AAAB
:100E3000694682E8A0010C48FFF728FB206840F4CF
:100E400000002060206800F40000059006B0BDE8B6
:100E5000F08100000054004030380240000402409D
:100E6000005C004000080240000002400248816827
:100E70000278114481607047040000200B4810B5CF
:100E8000016841F400710160016841F48061016012
:100E9000016841F480710160032000F061F80F20C7
:100EA00000F006F800F024F8002010BD003C0240DD
:100EB00070B50D4D04464FF47A712878B1FBF0F00F
:100EC0000A490968B1FBF0F000F0FEFA48B9102CAD
:100ED00007D200222146501E00F022F800206C604C
:100EE00070BD012070BD0000040000201000002033
:100EF0000A4808B5016841F480410160006800F4C7
:100F0000804000900548001F016841F08051016059
:100F1000006800F08050009008BD00004438024096
:100F2000F0B40E4B1B680C46C3F30223C3F1070554
:100F3000042D00D90425191D072901D2002300E042
:100F4000DB1E012606FA05F1491E214099409E400C
:100F5000761E16403143F0BC01F0AEB80CED00E057
:100F6000064900F0070208684FF6FF03184040EA00
:100F70000220034A10430860704700000CED00E0B7
:100F80000000FA052DE9F0470E46050065D0DFF8B0
:100F90001481D8F80000F7B200F00F00B04207D279
:100FA00088F80070D8F8000000F00F00B04254D16B
:100FB00028683D4C810712D5400703D5206840F4CE
:100FC000E05020602878000703D5206840F4604096
:100FD00020602068A96820F0F0000843206028788D
:100FE000C0072DD0304968680839012812D002287E
:100FF00013D0032811D00968890700292DDA216848
:1010000021F0030101432160FFF760FB814641F2BB
:10101000883A0EE009688903EFE709688901ECE77F
:10102000FFF754FBA0EB0901514502D90320BDE8AD
:10103000F0872068696800F00C00B0EB810FEFD1F9
:10104000D8F80010404601F00F01B14207D90770EF
:10105000006800F00F00B04201D00120E7E72878D7
:10106000400705D52068E96820F4E0500843206077
:101070002878000706D52068296920F4604040EAF6
:10108000C100206000F038F82168084AC1F303115C
:10109000515CC8400649086006480068FFF708FF31
:1010A0000020C4E7003C0240083802409C3E000893
:1010B0001000002008000020044805490068096865
:1010C000044AC1F38221515CC840704710000020DF
:1010D00008380240AC3E0008044805490068096829
:1010E000044AC1F34231515CC840704710000020EF
:1010F00008380240AC3E0008154810B5006810F0F2
:101100000C02144813D01449042A0FD0082A0ED117
:101110000F4C241F2268236802F03F025B0207D5B0
:101120002068C0F38810A0FB010106E0084610BD4E
:101130002168C1F38811A1FB00010023FFF7A6F885
:101140002168C1F30141491C4900B0FBF1F010BD19
:10115000083802400024F40040787D012DE9F84F62
:1011600004006ED02078DFF84C93C007A9F1040585
:101170004AD009F104000168C1F38101012908D0B6
:101180000068C0F3810002280AD1D9F800004002AB
:1011900006D52868800337D560680028E1D033E0A1
:1011A0006068B0F5803F10D0B0F5A02F286810D04F
:1011B00020F480302860286820F48020286060684F
:1011C000A8B1FFF783FA06460DE0286840F48030A6
:1011D000F4E740F480202860F7E700BFFFF776FAD5
:1011E000801B642873D828688003F7D50CE0FFF7CC
:1011F0006DFA064605E000BFFFF768FA801B642819
:10120000F0D828688003F7D42078DFF8AC82800714
:101210004FF0000A3ED5A748001D016811F00C0FE1
:1012200008D00068C0F3810002280BD1D9F8000073
:10123000400207D42868800716D5E068012800D14D
:1012400012E033E1E068B8B10120C8F80000FFF710
:101250003DFA064605E000BFFFF738FA801B02287A
:10126000C0D828688007F7D52868216920F0F800E1
:1012700040EAC10028600DE0C8F800A0FFF726FA98
:10128000064604E0FFF722FA801B02281FD82868D0
:101290008007F7D42078000722D5864F87486169F8
:1012A000703771B101210160FFF710FA064604E0C2
:1012B000FFF70CFA801B022809D838688007F7D599
:1012C0000EE0C0F800A0FFF701FA064605E082E054
:1012D000FFF7FCF9801B02287DD838688007F7D417
:1012E0002078400768D5DFF8CCB100270BF13C0B24
:1012F000DBF80000C0000BD4DBF8001041F0805197
:10130000CBF80010DBF80000012700F080500090BF
:101310006B4E3068C00510D4306840F48070306087
:10132000FFF7D4F9009005E0FFF7D0F90099401AD3
:10133000022850D83068C005F6D55E4EA0686C36DD
:1013400001280FD00528306810D020F0010030604F
:10135000306820F004003060A068B8B1FFF7B6F93B
:1013600000900FE0306840F00100F4E740F0040026
:101370003060F7E7FFF7AAF90099411A41F2883087
:10138000814266D830688007F4D50EE0FFF79EF9F9
:10139000009007E0FFF79AF90099411A41F288306E
:1013A000814256D830688007F4D42FB1DBF80010A2
:1013B00021F08051CBF80010A069C8B33D49091D48
:1013C0000968C1F3810102294AD00228504607D09A
:1013D000C8F8600000E03CE0FFF778F904463BE025
:1013E0004746C8F86000FFF771F9064605E000BF00
:1013F000FFF76CF9801B02282BD828688001F7D4EE
:10140000D4E907010843A16A2E4A490802EB0141C9
:10141000626A41EA8211084394F82C1040EA0161A3
:10142000C9F8001001203866FFF750F9044606E0BD
:101430003EE000BFFFF74AF9001B022809D82868E0
:101440008001F7D534E000BFFFF740F9001B022808
:1014500002D90320BDE8F88F28688001F4D427E082
:101460000128F7D0D9F80000E26900F48001914228
:101470001CD1226A00F03F01914217D147F6C0719A
:10148000626A0140B1EB821F10D1A26A4FF0FF33B4
:1014900000F4403103EB5202B1EB024F06D194F855
:1014A0002C1000F07060B0EB016F01D00120D1E78B
:1014B0000020CFE70438024000004742800E474238
:1014C000007000400000FFFF10B5401EB0F1807FAB
:1014D00001D3012010BD4FF0E02460610F2160179F
:1014E00000F0EAFD0020A06107202061002010BD6F
:1014F00070B5040004D094F84100002510B106E056
:10150000012070BD84F84050204600F023F82420CC
:1015100084F841002068C16821F40051C160204670
:1015200000F0F2FC2068016921F49041016120681B
:10153000416921F02A0141612068C16841F40051EC
:10154000C1606564202084F8410084F8420065632E
:10155000002070BD10B586B0044614216846FEF721
:101560000CFF13492068884220D1124800210268EC
:1015700042F400320260006800F4003005900D482B
:101580001038026842F001020260006800F00100B9
:1015900005900C2000900220CDE90101032003906A
:1015A0000720049069460448FEF770FF06B010BD9E
:1015B0000044004040380240000002402DE9F8435A
:1015C000044690F84100984616460D46202802D061
:1015D0000220BDE8F88385B17EB10020606421203F
:1015E00084F84100FFF772F8A6848146E684A0687B
:1015F0002027B0F5805F02D003E00120E9E72069F1
:1016000010B12E4600250EE000260CE08021204679
:1016100000F000FDA8B9C6B116F8010B21684860BA
:10162000E08C401EE084E08C4B464FF00002CDF889
:1016300000800028EAD14FF04001204600F0EAFC8B
:1016400040B184F841700320C3E735F8020BC0F3C2
:101650000800E3E784F841700020BAE7FEE701687C
:101660004A69D24352050FD46FF480624A61002167
:1016700040F8301F202242738173026942F0040255
:101680000261017301207047002070472DE9F84F77
:101690000446006889460B9D01689846174641F448
:1016A000806101602068016841F4807101600095EB
:1016B0004FF0011B0022594620460A9B00F0E4F837
:1016C0004FF4007A40B120680068C00501D5C4F825
:1016D00040A00320BDE8F88F216809F0FE000861F2
:1016E0002B46284920460A9A00F016F9F0BB2068DC
:1016F0004169806900902A4620460A9900F0A2F9C3
:1017000040B1206C04283AD12068016841F400718E
:10171000016034E0FEB2B8F1010F09D02168380A47
:1017200008612A4620460A9900F08CF90028E8D181
:10173000206806612A4620460A9900F083F90028AD
:10174000DFD12068016841F48071016000950022BA
:10175000594620460A9B00F097F80028B3D121682B
:1017600009F0FF0040F00100086100E007E02B46AF
:10177000044920460A9A00F0CFF80028AAD0012098
:10178000A8E70000020001002DE9F84304460068C4
:101790000D46DDE9089701689846164641F48071C8
:1017A00001604B4600224FF001112046009700F0E7
:1017B0006BF848B120680068C00502D54FF400708E
:1017C00020640320BDE8F883216805F0FE0008616D
:1017D0003B464A461549204600F09EF888B92068E5
:1017E0004169806900903A464946204600F02AF94E
:1017F00048B1206C042804D12068016841F40071CC
:1018000001600120DEE7F5B2B8F1010F09D02168CF
:10181000300A08613A464946204600F013F900288C
:10182000E7D1206805610020CCE70000020001003C
:1018300070B516460D4604461EE02046FFF70FFF22
:1018400008B1012070BD681C16D0FEF73FFF801B59
:10185000A84200D885B920684069C04340070BD52D
:10186000002044F8300F20216173A073216941F0FA
:10187000200121612073E4E720684069C0434007EC
:10188000DBD4002070BD00002DE9F04798461746D4
:101890000D460446C1F30746DDF820902AE000BF5C
:1018A000B8F1FF3F26D0FEF711FFA0EB090141453B
:1018B00002D8B8F1000F1DD12068012E16D0806922
:1018C00025EA00000004000C12D00020B84211D11B
:1018D000002044F8300F20216173A073216941F08A
:1018E0002001216120730120BDE8F0874069E7E70E
:1018F0000120EBE72068012E0AD0806925EA00006C
:101900000004000C06D00020B842C9D00020EBE74C
:101910004069F3E70120F7E72DE9F04798461646BE
:101920000D4604464FF000094FF0200AC1F3074767
:1019300023E020684069C043400515D42068016851
:1019400041F40071016021686FF480604861C4F85F
:10195000309084F83DA084F83E90216C41F0040161
:10196000216484F83C9021E0701C06D0FEF7AEFEA6
:10197000A0EB0800B04203D816B1012F1FD021E020
:101980002068012F15D0806925EA00000004000CB2
:1019900018D000BF44F8309F84F80DA084F80E9052
:1019A000216941F02001216184F80C900120BDE8FB
:1019B000F087406925EA00000004000CEAD12068A5
:1019C000406901E02068806925EA00000004000CFD
:1019D000AFD1ECE72DE9F041002590460E460446D4
:1019E000202728E04069C043C0060CD454F8301BBF
:1019F0006FF01000486144F810596777A577206AA6
:101A00002062257714E0FEF761FEA0EB0800B042EB
:101A100000D886B920684069C04340060BD544F819
:101A2000305F6773A573206940F020002061257343
:101A30000120BDE8F08120684169C9434906D1D43D
:101A40000020F6E770B516460D4604461EE0204617
:101A5000FFF705FE08B1012070BD681C16D0FEF727
:101A600035FE801BA84200D885B920684069C04374
:101A700000060BD5002044F8300F20216173A073BD
:101A8000216941F0200121612073E4E72068406969
:101A9000C0430006DBD4002070BD00007FB50446C3
:101AA0004FF47A72012103A88DE80700A1B2012347
:101AB00075221748FEF7CAFF9DF80C00682803D06E
:101AC0004FF0FF3004B070BD00258DF80C50A0B26F
:101AD000012303AA6B2100F089F907208DF80C007F
:101AE000A0B2012303AA192100F080F98DF80C504F
:101AF000A0B2012303AA1C2100F078F98DF80C5044
:101B0000A0B2012303AA1B2100F070F90020D9E73D
:101B1000780000201CB5184806236A4600883B213F
:101B200080B200F039F9BDF80000BDF8021040BAEB
:101B300000B200EE100A49BA09B2F8EEC01A00EE7F
:101B4000101ABDF804100D4849BAB8EEC01A09B20F
:101B500000EE101AF8EEC00A9FED090A61EE801A35
:101B600021EE001A20EE800AC0ED001A80ED011A65
:101B700080ED020A1CBD0000140000206801002056
:101B8000000080381CB5184806236A4600884321A7
:101B900080B200F001F9BDF80000BDF8021040BAB3
:101BA00000B200EE100A49BA09B2F8EEC01A00EE0F
:101BB000101ABDF804100D4849BAB8EEC01A09B29F
:101BC00000EE101AF8EEC00A9FED090A81EE802A95
:101BD000C1EE001A80ED032A80EE801AC0ED041ACF
:101BE00080ED051A1CBD00001400002068010020D3
:101BF0000000034330B587B014216846FEF7BDFBF3
:101C000025480024016841F010010160016801F0DD
:101C100010010591016841F080010160016801F047
:101C200080010591016841F001010160016801F046
:101C300001010591016841F004010160016801F0B2
:101C400004010591016841F0020101600068134D33
:101C500000F002000590012208212846FEF730FD21
:101C6000002210212846FEF72BFD082000901120AD
:101C7000CDE90104694628460394FEF707FC1020CD
:101C800000900120CDE90104694628460394FEF73F
:101C9000FDFB07B030BD00003038024000100240AC
:101CA000144810B5124901601349416000214FF4F6
:101CB00080428160C0E9031241618161C1610162BA
:101CC000FEF74AFD08B1FEF7CCFB00210948FEF7FC
:101CD00003FD08B1FEF7C5FB00210648FEF71DFD18
:101CE000002803D0BDE81040FEF7BBBB10BD0000CC
:101CF0000054004078000020801A0600144810B5F7
:101D0000124901601349416000214FF48042816013
:101D1000C0E9031241618161C1610162FEF71CFDEE
:101D200008B1FEF79EFB00210948FEF7D5FC08B17B
:101D3000FEF797FB00210648FEF7EFFC002803D0D2
:101D4000BDE81040FEF78DBB10BD0000005C0040F8
:101D5000CC000020801A06000C4810B50A4901602A
:101D60004FF4E1314160002181600C22C160C0E983
:101D700004128161C161FFF7BBFB002803D0BDE8FD
:101D80001040FEF76EBB10BD004400402001002053
:101D9000FEE7FEE7704770473EB54FF47A748DE872
:101DA0001C000A46014601230248FEF74FFE40B2DE
:101DB0003EBD00007800002070B501244FF47A7514
:101DC0002B46012221460748FEF78AFD28B1641CF4
:101DD000E4B2FF2CF4D3D12070BD03480480204628
:101DE00070BD000078000020140000203EB54FF4C4
:101DF0007A748DE81C000A46014601230248FEF76A
:101E000027FF40B23EBD000078000020FFF72EB84B
:101E100030B593B030216846FEF7AFFA14210CA814
:101E2000FEF7ABFA1E480025016841F080510160C1
:101E3000006800F0805011901A48016841F4404158
:101E400001600068022400F44040119001200090DD
:101E5000000401908001CDE90640192008904FF45C
:101E6000A870CDE9090404200B906846FFF776F9C5
:101E700008B172B6FEE70CA90F2081E831004FF4DB
:101E8000A0500F904FF48050109005210CA8FFF740
:101E900079F8002801D072B6FEE713B030BD00001B
:101EA00040380240007000400248016841F470016F
:101EB0000160704788ED00E001680C3151E8002FA7
:101EC00022F4907241E80023002BF5D1016814310F
:101ED00051E8002F22F0010241E80023002BF5D148
:101EE000016B012909D101680C3151E8002F22F062
:101EF000100241E80023002BF5D1202180F8421088
:101F0000002101637047000070B504460068016954
:101F1000E26821F44051114301612169A068E2693E
:101F200008436169114308432168CA6849F20C6398
:101F30009A430243CA6020684169A26921F4407152
:101F40001143416131492068884202D030498842BA
:101F500002D1FFF7C1F801E0FFF7AEF8E269002314
:101F6000192164253226B2F5004F626828D0A0FB03
:101F70000101930F9200FEF789F90146B0FBF5F0DD
:101F80006FF01802504301EB800006EB0010B0FB2D
:101F9000F5F000F0F002B1FBF5F002EB0012B1FB3E
:101FA000F5F06FF01803584301EB800006EB0010CA
:101FB000B0FBF5F000F00F0021681044886070BDA0
:101FC000A0FB010192185B41FEF760F90146B0FBEE
:101FD000F5F00201B1FBF5F06FF01803584301EB87
:101FE000800006EBC000B0FBF5F000F0F80002EB5B
:101FF0004002B1FBF5F0584301EB800006EBC00056
:10200000B0FBF5F000F00700D6E70000001001403B
:10201000001401402DE9F843984617460D46044642
:10202000089E24E0701C22D0FEF750FBA0EB0800B5
:10203000B0421AD8CEB12068C168490717D5802DA3
:1020400015D0402D13D00168C94309070FD401688A
:102050000025406800902046FFF72EFF08206064AE
:1020600084F840500120BDE8F8830320FBE7206896
:10207000006835EA000004D00020B842D2D0002029
:10208000F1E70120F9E7FEE703B401984100009869
:1020900050EAC12018BF04204A0D18BF40F00100CB
:1020A00040F2FF72B2EB515F08BF40F0020001281E
:1020B00008BF052002B070470907090E002804DB9D
:1020C00000F1E02080F80014704700F00F0000F1EC
:1020D000E02080F8141D704770B59B482DED020B71
:1020E0002DED068B079D25F00044A04218DC974893
:1020F000844202DC0AD1069840B19DED060BBDEC8E
:10210000068B02B0BDE8704000F042BE002DCCBF8F
:102110009FED8F0B9FED900BBDEC068B02B070BD59
:102120008F48A04215DD8F48A042D8BF4FF0FF3442
:1021300058DD9DED060B51EC100BFFF7A5FF0428B1
:1021400008BF00F041FE9DED060BBDEC068B02B012
:1021500070BD9DED060B51EC100B00F045FECDE976
:10216000060181489FED828BA0423CDD8248A0425F
:102170001FDD00249FED82AB9DED060B53EC1A2B67
:1021800051EC100B01F07CF89DED060B41EC190BA6
:1021900053EC1A2B51EC100B01F014FB53EC182BE1
:1021A00001F01CFD53EC192B01F01EF9CDE90601DD
:1021B00049E09DED060B012453EC182B51EC100B5C
:1021C00001F05EF89DED060B41EC190B53EC182B5A
:1021D00051EC100B01F002FD53EC192B01F004F946
:1021E000CDE906012FE06848A0421FDD02249FEDE3
:1021F000689B9DED060B53EC192B51EC100B01F075
:10220000E1FA53EC182B01F03BF89DED060B41EC85
:10221000180B53EC192B51EC100B01F0DFFC53ECB5
:10222000182B01F0E1F8CDE906010CE09DED060B5D
:10223000032453EC102B9FED580B51EC100B01F0C5
:10224000D3F8CDE906019DED060B53EC102B51ECB4
:10225000100B01F0B7FA41EC180B53EC182B01F0FE
:10226000B1FA41EC190B4E480621B0EE490AF0EEE6
:10227000690A784400F078FC53EC182B51EC100BF1
:1022800001F0A0FA41EC180B4648B0EE490AF0EE16
:10229000690A0521784400F067FC53EC192B51ECD6
:1022A000100B01F08FFA41EC100B51EC180B53ECB2
:1022B000102B002C0EDA00F0E3FF9DED061B53EC13
:1022C000112B01F07FFA9DED061B53EC112B01F051
:1022D000ADFB35E000F0D4FF9DED061B53EC112B58
:1022E00001F070FA41EC100B2F48784400EBC40069
:1022F00090ED001B51EC100B53EC112B01F06EFC18
:102300009DED061B53EC112B01F068FC41EC100B0A
:102310002648784400EBC40090ED001B51EC100BF4
:1023200053EC112B01F082FB41EC100B002DA2BFEE
:10233000BDEC068B02B070BD51EC100B00F094FFA9
:1023400041EC100B01E70000000010440000F07F9A
:10235000182D4454FB21F93F182D4454FB21F9BF9B
:102360000000DC3F0000203E0000F33F00000000C2
:10237000000000000000F03F0000E63F0000000009
:10238000000000000000004000800340000000004A
:10239000000000000000F83F000000000000F0BF57
:1023A000AA1C0000601C0000EA1B0000A21B000029
:1023B00010B52F499FED2C1B2DED020B84B0059815
:1023C00020F000408842D8BF9DED040B2DDD294947
:1023D000884209D1049840B94FF00100FDF7FCFF95
:1023E00000F0E2FC06B010BD05DB9DED040B00F033
:1023F000CFFC06B010BD68469DED040B00F0E0F880
:1024000010F0030004BF9DED021B9DED000B0CD0EE
:1024100001280ED09DED021B9DED000B022817D068
:10242000012000F01DFC06B010BD00F0E5FA06B07A
:1024300010BD9DED021B9DED000B012000F010FC76
:1024400051EC100B00F010FF06B041EC100B10BD6A
:1024500000F0D2FA51EC100B00F006FF06B041EC90
:10246000100B10BD00000000000000000000000084
:10247000FB21E93F0000F07F10B52F499FED2C1B99
:102480002DED020B84B0059820F000408842DCBF9F
:1024900000209DED040B32DD2849884209D10498C3
:1024A00040B94FF00100FDF797FF00F07DFC06B04A
:1024B00010BD05DB9DED040B00F06AFC06B010BDFD
:1024C00068469DED040B00F07BF810F0030011D07E
:1024D000012818D09DED021B9DED000B02281AD09B
:1024E00000F08AFA51EC100B00F0BEFE06B041EC91
:1024F000100B10BD9DED021B9DED000B012000F0A7
:10250000AFFB06B010BD9DED021B9DED000B00F072
:1025100073FA06B010BD012000F0A2FB51EC100BC5
:1025200000F0A2FE06B041EC100B10BD0000000050
:102530000000000000000000FB21E93F0000F07FE8
:1025400000B52DED048BB0EE409AF0EE609A83B0AA
:1025500051EC190B01F076FA41EC180B18EE100A49
:1025600018EE901A8DED008B002818BF012008434B
:1025700020F00040C0F17F6000F1E040C00F14D0B7
:1025800019EE101A19EE900A8DED009B002918BF64
:102590000121084320F00040C0F17F6000F1E040DD
:1025A000C00F04BF0120FDF717FFB0EE480A03B0CB
:1025B000F0EE680ABDEC048B00BD000000000000D6
:1025C0002DE9F14F04462DED020B2DED088B8AB05D
:1025D0009FEDE70B80ED020B139EE74826F00045C8
:1025E00085420ADC9DED120B002084ED000B0AB041
:1025F000BDEC088B03B0BDE8F08FE0489FEDE0AB89
:102600009FEDE1BBA84247DDE14F9FEDE39B9FEDCE
:10261000E48B9DED120B53EC1A2B51EC100B002E9A
:102620001CDD01F0DBFA41EC100BBD4208D053EC8D
:102630001B2B51EC100B01F0D1FAC4E900010BE0A7
:1026400053EC192B51EC100B01F0C8FA53EC182B7A
:1026500001F0C4FAC4E900010120C8E700F010FE4F
:1026600041EC100BBD4208D053EC1B2B51EC100B6E
:1026700000F006FEC4E900010BE053EC192B51EC0D
:10268000100B00F0FDFD53EC182B00F0F9FDC4E930
:1026900000014FF0FF30AAE7C348A84279DB9DED67
:1026A000120B51EC100B00F09FFB41EC180B9FED4F
:1026B000C00B53EC102B01F085F89FEDBF1B53ECC2
:1026C000112B00F0DDFD00F0E7FF074601F013F8E5
:1026D00041EC190B53EC1A2B01F074F853EC182B46
:1026E00001F0A4F941EC180B53EC1B2B51EC190B26
:1026F00001F068F8DFF8C8A241EC100B4FEA15585A
:102700000125FA4453EC102B51EC180B01F066FA3A
:10271000032DC4E900013DD0C1F30A5005EB45117A
:10272000A8EB00001139814234DA0AEB051BB0EE48
:1027300048AA9BED000BF0EE68AA53EC102B51EC6D
:10274000190B01F03FF841EC1B0B51EC1A0B53EC49
:102750001B2B01F043FA41EC180B51EC1A0B53EC14
:10276000182B01F03BFA53EC1B2B01F037FA9BEDD1
:10277000020B41EC1A0B53EC102B51EC190B01F02E
:1027800021F853EC1A2B01F029FA41EC100B6D1CC7
:10279000B8E70EE0002EA8BF3846BFF628AF94ED8C
:1027A000000B51EC100B00F05FFDC4E90001784212
:1027B0001DE7C6F3130040F4801EC6F30A50A0F2D2
:1027C000F530471100F01F05C5F12000DDF848B0D5
:1027D00008900020069007900520EC467949002DCE
:1027E00007EB0002794408BF51F8221009D051F8D4
:1027F000223001EB8201AB404A68089922FA01F1CC
:102800001943A1FB0E26A1FB0B131A449A4234BFB5
:102810000123002303EB06080CEB8003D3E901A698
:102820000E448E4234BF0121002192448A4411B1EA
:10283000924502D903E0924501D2012100E0002136
:10284000C3E901A641444CF82010011EA0F101008B
:10285000C4DC029800F10050850F0298DDE903679F
:102860008000DDF8148000F046FF41EC1A0B304682
:1028700000F058FF9FED541B53EC112B00F0A2FF0A
:1028800041EC1B0B384600F04DFF9FED511B53EC04
:10289000112B00F097FF41EC180B404600F042FF6F
:1028A0009FED4D1B53EC112B00F08CFF41EC190BED
:1028B00051EC180B53EC192B00F0E2FC53EC1B2BE2
:1028C00000F0DEFC53EC1A2B00F0DAFCCDE9080135
:1028D000002008909DED080B53EC1A2B51EC100BC7
:1028E00001F07CF953EC1B2B01F078F953EC182B19
:1028F00001F074F953EC192B01F098F89FED381B97
:1029000053EC112B00F05EFF9FED370B41EC180BE1
:1029100053EC102B9DED080B51EC100B00F052FF07
:1029200053EC182B00F0ACFC9FED310B41EC180B75
:1029300053EC102B9DED080B51EC100B00F042FFF7
:1029400053EC182B00F09CFC41EC100B139810F08A
:10295000004F06D06D4251EC100B00F085FC41ECAD
:10296000100B284684ED000B41E60000000000003B
:102970000000000000000000FB21E93F7CD902407C
:1029800000004054FB21F93F3163621A61B4D03D2D
:10299000FB21F93F000000000000601A61B4D03D47
:1029A0007370032E8A19A33BFB21394100000000FC
:1029B00083C8C96D305FE43F000000000000E03FC5
:1029C0007A180000C8170000000000000000103E48
:1029D000000000000000103C000000000000103A61
:1029E000182D4454FB21F93D3326A611460B113C0A
:1029F00000000054FB21F93D10B52DED040B2DED29
:102A0000088B82B0B0EE419AF0EE619A0B9820F0FC
:102A100000449FED4BABB4F1795F11DA9DED0A0BE9
:102A200051EC100B00F038FE002801BFB0EE4A0A4E
:102A3000F0EE6A0A02B0BDEC088B04BF04B010BD12
:102A40009DED0A0B53EC102B51EC100B00F0BAFE6D
:102A500041EC180B3C480621B0EE480AF0EE680A3B
:102A6000784400F081F853EC182B51EC100B00F077
:102A7000A9FE9DED0A0B41EC1B0B53EC192B51ECFD
:102A8000100B00F09FFE41EC190B53EC1B2B51EC8B
:102A9000180B00F097FE53EC192B01F09FF89FEDF7
:102AA0002C0B41EC190B53EC102B51EC180B00F0D4
:102AB00089FE41EC100B2848844210DA53EC192BA4
:102AC00051EC100B01F08AF853EC1A2B00F0AEFF1A
:102AD00041EC100B02B0BDEC088B04B010BD1F48D8
:102AE000A042BCBF9FED1E1B8DED001B06DBA4F5B5
:102AF00000100190002000909DED001B51EC100B88
:102B000053EC112B01F06AF89DED000B41EC180B12
:102B100053EC102B51EC1A0B01F060F841EC1A0B3E
:102B200053EC192B51EC180B01F058F853EC1A2BFD
:102B300000F07CFF41EC100BCCE70000000000002F
:102B4000000000000000F03FEC1400000000000056
:102B5000000000000000E03F3333D33F0000E93FB6
:102B6000000000000000D23F70B504462DED028B3E
:102B70004D1E00EBC500B0EE408AF0EE608A90ED8D
:102B8000000B35F0060017D053EC182B51EC100B4E
:102B900000F018FE41EC100B6D1E04EBC50090ED2B
:102BA000001B51EC100B53EC112B00F069FB41ECB6
:102BB000100B35F00600E7D1022D36D0042D1CD0C5
:102BC000062D1CBFBDEC028B70BD53EC182B51ECD5
:102BD000100B00F0F7FD94ED0A1B53EC112B00F0E5
:102BE0004FFB53EC182B00F0EDFD94ED081B53EC5C
:102BF000112B00F045FB41EC100B53EC182B51EC62
:102C0000100B00F0DFFD94ED061B53EC112B00F0D0
:102C100037FB53EC182B00F0D5FD94ED040B53EC6F
:102C2000102B00F02DFB41EC100B53EC182B51EC4A
:102C3000100B00F0C7FD94ED021B53EC112B00F0BC
:102C40001FFB53EC182B00F0BDFD94ED001B53EC63
:102C5000112B00F015FBBDEC028B41EC100B70BD8D
:102C600031B504462DED040B2DED0A8BB0EE41BAC3
:102C7000F0EE61BA0B989DED0A0B20F00040B0F128
:102C8000795F0DDA51EC100BFFF7FEF9042808BF4D
:102C900000F09AF89DED0A0BBDEC0A8B05B030BD33
:102CA00053EC102B51EC100B00F08CFD41EC180B89
:102CB0009DED0A0B53EC182B51EC100B00F082FD2C
:102CC00041EC190B2C48B0EE480AF0EE680A0521D9
:102CD0007844FFF749FF9FED2ACBB0EE40AAF0EE13
:102CE00060AA9CB353EC1C2B51EC190B00F06AFD4D
:102CF00041EC1C0B53EC1A2B51EC190B00F062FD4C
:102D00009FED210B41EC190B53EC102B51EC1B0BDD
:102D100000F058FD53EC192B00F060FF53EC182B1A
:102D200000F050FD53EC1B2B00F058FF53EC1C2B14
:102D300000F054FF9DED0A1B53EC112B00F076FEC2
:102D4000BDEC0A8B05B041EC100B30BDFFE753EC36
:102D50001A2B51EC180B00F035FD53EC1C2B00F036
:102D60008FFA53EC192B00F02DFD9DED0A1B53EC4F
:102D7000112B00F085FAE3E7741300000000000057
:102D8000495555555555C5BF000000000000E03FAE
:102D900010B553EC102B51EC100B00F071FA41EC14
:102DA000100B10BD000000009FED050B10B553EC9B
:102DB000102B51EC100B00F017FB41EC100B10BD69
:102DC00000000000000000009FED050B10B553EC63
:102DD000102B51EC100B00F0F5FC41EC100B10BD6A
:102DE000000000000000001082B0CDE9000121F0D9
:102DF000004001909DED000B02B051EC100B7047AC
:102E00002DE9F041F24D2DED0E8B9FEDF28BF34E3F
:102E10009FEDF3CB9FEDF4DBA5F14004FEF77AFEC6
:102E2000FEF7B0FEF24FD7ED019A97ED029A89EEC8
:102E3000890A10EE100A00F0BBFF41EC100BFFF7FF
:102E40004BF99FEDECAB51EC100B53EC1A2B00F04F
:102E5000B9FC9FEDEA1B53EC112B00F0C5FA29EEEB
:102E6000A90AC4E9080109EE090A10EE100A00F0E7
:102E70009FFF41EC100BFFF763FBB0EE409AF0EEC2
:102E8000609A386800F094FF53EC192B00F0ACFA0C
:102E900041EC100BFFF720F953EC1A2B51EC100BFF
:102EA00000F090FC9FEDD71B53EC112B00F09CFA27
:102EB0009FEDD60BC4E9040184ED0E0B786900F098
:102EC00077FF41EC190B94ED0A0BFFF771FAB0EEA6
:102ED00040AAF0EE60AA94ED0A0BFFF7CDFAB0EE2F
:102EE00040BAF0EE60BA94ED0C0BFFF761FAB0EE69
:102EF000401AF0EE601A53EC1B2B51EC110B00F052
:102F000061FC53EC1A2B00F06FFA53EC192B00F014
:102F100059FC41EC1A0B386900F04AFF41EC1B0BDD
:102F200094ED0A0BFFF744FAB0EE409AF0EE609A87
:102F300094ED0C0BFFF7A0FAB0EE40EAF0EE60EA79
:102F400094ED0A0BFFF798FAB0EE401AF0EE601A13
:102F500053EC1E2B51EC110B00F034FC53EC192BED
:102F600000F042FA53EC1B2B00F02CFC41EC190B47
:102F7000F86800F01DFF53EC192B00F081F953ECB9
:102F80001A2B00F07DF994ED0E1B53EC112B00F081
:102F900019FC94ED0CAB53EC1A2B00F071F9C4E959
:102FA0000601786900F004FF41EC190BB0EE4A0A03
:102FB000F0EE6A0AFFF760FA53EC192B51EC100B94
:102FC00000F000FC41EC1A0B386900F0F1FE41EC16
:102FD000190B94ED0C0BFFF7EBF953EC192B51EC9B
:102FE000100B00F0EFFB53EC1A2B00F0F7FD94ED03
:102FF0000E1B53EC112B00F0E5FB94ED0A1B53EC78
:10300000112B00F03DF941EC190B95ED000B9FEDF4
:1030100081AB51EC100B53EC1A2B00F031F941EC61
:103020001B0B53EC1A2B85ED00BB85ED028B85ED58
:10303000048B95ED060B51EC100B00F021F941ECDF
:103040001A0B85ED06AB9FED75EB51EC1B0B53ECAA
:103050001E2B00F015F941EC100B51EC1B0B53EC3F
:10306000102B00F0C1F941EC1B0B53EC1E2B86ED2D
:1030700000BB86ED028B86ED048B51EC1A0B00F041
:10308000FFF841EC100B51EC1A0B53EC102B00F035
:10309000ABF941EC1A0B86ED06AB94ED06EB94ED23
:1030A000080B53EC1E2B51EC100B00F097FD53EC6A
:1030B0001B2B00F087FB53EC1E2B00F0E1F8C4E95A
:1030C000060194ED040B53EC192B51EC100B00F09E
:1030D00085FD53EC1A2B00F075FB53EC192B00F017
:1030E000CFF841EC100B53EC1C2B84ED020B00F0DD
:1030F0002DFB01D2606820B394ED020B53EC1C2B26
:1031000051EC100B00F05CFC0BD294ED020B53EC75
:103110001D2B51EC100B00F019FB02D26068012846
:1031200011D094ED020B53EC1D2B51EC100B00F061
:1031300047FC02D26068022839D06068032838D082
:1031400003E0012000E00220606096ED000B9FED9F
:10315000359B53EC102B51EC190B00F03FFD95ED16
:10316000001B53EC112B00F02DFBC5E9000185ED90
:10317000028B85ED048B96ED060B51EC190B53EC8D
:10318000102B00F02BFD95ED061B53EC112B00F0DE
:1031900019FBC5E9060194ED020B84ED0A0B94EDD1
:1031A000060B84ED0C0BBDEC0E8BBDE8F08103200B
:1031B00060601E484FF0FF3302220168491C016025
:1031C00003491B484039FEF7F9F90020BCE700002D
:1031D00058000020000000000000000088010020CE
:1031E0000000000000003EC00000000000003E4063
:1031F0006801002000000000008066401F85EB5140
:10320000B81E09401F85EB51B81E09C0FCA9F1D2B8
:103210004D62503F7B14AE47E17A643F3333333322
:103220003333D33F000000000000F03F00000020D7
:1032300020010020FDF722FEFEF7EAFDFEF7DAFC92
:10324000FEF75CFDFEF72CFDFEF786FD4FF4FA70ED
:10325000FDF70AF9FEF7B0FDFEF720FC0020FDF7B0
:1032600003F9FFF7CDFDF9E781F00041704780F0E9
:103270000040704721F00041704720F00040704747
:1032800010B591EA030F48BF83F0004300F1AE840C
:10329000841A71EB030C05D2121943EB0C03001BCB
:1032A00061EB0C01DFF824E14FEA1154A4EB135C4D
:1032B0001EEA430F18BF9EEA445F73D023EA0E0351
:1032C000DCF1200E21EA045143F4801332D322FAB8
:1032D0000CFE10EB0E0023FA0CFE41EB0E01CCF1BC
:1032E000200E03FA0EFE10EB0E0051F10001B1F5B5
:1032F000801FCCF1200E32D201EB045112FA0EF2F3
:10330000BDE8104058BF7047401C38BF5FEA42021A
:1033100018BF7047002814BF20F0010041F10001E0
:103320004FEA410313F5001F38BF7047A1F1C041B8
:1033300000F040BB012A43EB0302ACF1200CDCF1AE
:103340001F0E32BF4FF0000E23FA0CF310EB0300F8
:1033500041EB0451B4EB115FD0D0A1EB045101F566
:10336000801149085FEA300001EB04510ED350F19F
:10337000000038BF12FA0EFE08D1BDE81040C9E7C0
:10338000401C38BF5FEA4202CAD1C3E7BDE8104023
:103390004FEA410313F5001F38BF7047A1F1C04148
:1033A00000F008BB9EEA445F08D011EA5E0FBDE85A
:1033B000104004BF01F0004100207047BDE81040FC
:1033C00070B500F0A9FA00BF64FBBE3E0000E0FF4C
:1033D000491058BFC1F140415B1058BFC3F1404391
:1033E0008B42EFF3008070472DE9C04130B4DFF825
:1033F000A0C23CEA111418BF3CEA131400F0EC80A0
:1034000081EA03051CEA111444EAD57418BF1CEACA
:10341000131500F0C780A4EB05044FF0004545EA02
:10342000C12145EAC32341EA505143EA525304F112
:103430007F74994204F500344FEAC0204FEAC2225B
:1034400008BF904200F09C804FEA13650FF24016CF
:10345000765D4FEA134506FB05F7C7F1807706FB5B
:1034600007F74FEAD737A7FB03687642C8F58038DD
:10347000A7FB06CE38BFA8F1010807FB08E64FF00E
:10348000000EA6FB028CE6FB03CEDCF1000CCEF1B5
:10349000004E38BFAEF1010EA6FB0C584FF00007EE
:1034A0004FF00005E6FB0E87A1FB08C6A0FB07CE88
:1034B00016EB0E0645F10005E1FB076515F1E04E40
:1034C0007EBFA4F580345FEA46066D4116F18007A1
:1034D00045F100054FEA17274FEA066647EA0567F8
:1034E000A6F1DE46B6F1805F4FEA15251FD93846B2
:1034F00024F0010C05EBC471BCF1FE6F01EB0C1163
:1035000002D8F0BCBDE8008124425CBF01F5801EFA
:103510009EEAC47F02D4F0BCBDE80081244238D4C6
:10352000F0BCA1F1C041BDE8004100F043BA4FEA50
:10353000D22242EA43524FEAD323A7FB02864FEA44
:10354000D02040EA415007FB03661EEA0E0F4FEA07
:10355000D12105FB026658BFA6EB0056B6EB00561C
:103560004FEA520E4EEAC37E18EB0E0E56EB530E88
:10357000BDD518EB02085E417F1C55F10005B6E78A
:103580004FF480154FF000074FF000064FF0000891
:10359000ADE7F0BC4FF0000001F1C04101F0004187
:1035A000BDE8008111EA0C1F0CEA131500D00CE0F5
:1035B00013EA0C1F00F025804FF00000F0BC81EAF8
:1035C000030101F00041BDE80081F0BCBDE800410D
:1035D00081EA030100F0EEB9F0BCBDE8004170B52E
:1035E00000F09AF9097EFC3E00F007B881EA030179
:1035F0004FF0000001F00041704781EA030100F044
:10360000D9B9F0BCBDE800414FF000002149704736
:10361000FFFDFBF9F7F5F4F2F0EEEDEBE9E8E6E497
:10362000E3E1E0DEDDDBDAD8D7D5D4D3D1D0CFCD1E
:10363000CCCBCAC8C7C6C5C4C2C1C0BFBEBDBCBB57
:10364000BAB9B8B7B6B5B4B3B2B1B0AFAEADACAB52
:10365000AAA9A8A8A7A6A5A4A3A3A2A1A09F9F9E2C
:103660009D9C9C9B9A9999989797969595949393DE
:10367000929191908F8F8E8E8D8C8C8B8B8A898975
:1036800088888787868585848483838282818180F8
:103690000000FF070000F87F4FEA41034FEA535351
:1036A000A3F58063D3F11E03C8BFD3F1210C0CDD59
:1036B0004FF0004242EAC12242EA505232FA03FC81
:1036C0008CEAE17CACEBE1707047102BC4BF0020AA
:1036D000704703F5787CBCF1FF3F04D06FF00042E7
:1036E00082EA2100704770B500F016F949922480F3
:1036F00000207047F2E710F0004248BF4042B0FAA5
:1037000080F310FA03F10AD0C3F11D0303F58063BF
:103710004FEA415002EB035202EBD12170474FF0C8
:1037200000007047B0FA80F310FA03F10AD0C3F139
:103730001D0303F580634FEA41504FEA035202EB49
:10374000D12170474FF000007047000051EA030C90
:1037500017D41CF5801F58BFBCF5801F00F10680F0
:10376000994218BF704708BF9042704707D711F5BC
:10377000801F58BF13F5801F19D4994270478942A2
:1037800070471CF5801F08D5BCF5801FF7D58B420C
:1037900018BF704708BF824270474FF4001C1CEBF3
:1037A000410F38BF1CEB430F01D28B42704770B5FD
:1037B00000F0B2F8922449004FF000514FF08053CE
:1037C000FFF706BEDFF848C170B51CEA111E1EBF28
:1037D0001CEA13159EEA0C0F95EA0C0F00F06F809F
:1037E00081EA030423EA4C134EEAD47E21EA4C1109
:1037F00041F4801143F48013AE44A1FB024CA0FBC2
:103800000365AEF17F7E361955EB0C05A1FB034C29
:103810004CF10003A0FB021C16EB0C06654153F1B2
:103820000003094218BF46F0010613F4007F0BD1D4
:103830004FEA03314FEA0530340341EA155140EABB
:1038400016506FF003020AE04FEAC3214FEAC52089
:10385000F40241EA555140EA56506FF0020202EB81
:103860002E4201EB025585EACE710AD05FEA440C84
:1038700018BF24F0004450F1000041F1000120EA9B
:10388000D47040F2FE7C624500D270BDA84214BFE5
:103890004FF080444FF04044002E08BF0024BEF19A
:1038A000806FA8BFA1F1C041BDE8704080F2828066
:1038B0004FF0000001F1C04101F0004170479EEA65
:1038C0000C0F0CEA131518BF95EA0C0F06D04FF039
:1038D000000081EA030E0EF0004170BD00F01CF8FC
:1038E0008900013E00F007B800F009B84FEA430C28
:1038F0005FEA5C5C08D081EA030100F05BB84FEA44
:10390000410C5FEA5C5CF6D14FF000000149704762
:103910000000FF070000F87F0EF1020E2EF0030EEC
:103920005EF8046B364205D4012A43EB030515F516
:10393000001F12D8012841EB010C1CF5001F0CD808
:103940000ED14FEAD17C15F5001F0CEB4C0C0CF19D
:10395000020C08BF4CEBD37C04E04FF0080C01E0F4
:103960004FEAD37C0CEB4C0526FA05F606F0070669
:10397000B6F1040C06D20EEB860CBDE870404CF09C
:10398000010C6047DFE80CF0090B02024FF0004128
:103990004FF00000A1F5002170BD19461046012826
:1039A00051EB010418BFD4F5001484BF002001F0CE
:1039B000004170BD0808A0F500114FEA31017047C1
:1039C00053EA010C17D41CF5801F58BFBCF5801FAB
:1039D00000F106808B4218BF704708BF82427047D3
:1039E00007D713F5801F58BF11F5801F19D48B42DC
:1039F00070479B4270471CF5801F08D5BCF5801F9F
:103A0000F7D5994218BF704708BF904270474FF4EE
:103A1000001C1CEB430F38BF1CEB410F01D2994235
:103A200070470FB40CBC03BCFFF7C1BE91EA030F93
:103A300010B581F000413FF52BAC83F0004300F05E
:103A4000D5B800002DE9F04101F5801CBCF5001F40
:103A5000C0F2A9804FEA115C21EA0C510CF1FD0C77
:103A600041F480115FEA5C0C0CF5C07C01D340008E
:103A7000494130A4890241EA905187028E0E0A0C16
:103A8000A45D04FB04F602FB06F6C6F14046A4FB67
:103A90000662F60D46EA422606FB06F4A4FB012365
:103AA0005242C3F1404338BF5B1EA6FB02420024D2
:103AB000E6FB0324D20B42EA4446A6FB0623A1FB05
:103AC00002E2A3FB07E4E3FB61426442C2F1404E21
:103AD00038BFAEF1010EA6FB04234FF00002E6FB57
:103AE0000E32A2FB03463400E2FB6264A1FB06E651
:103AF000A4FB07E8E4FB61687642C8F1405838BF90
:103B0000A8F10108A2FB06E4A3FB08E5E2FB685468
:103B1000A1FB05E6A7FB04E8E1FB648618F120059C
:103B200056F10006A809A8F11B08B10908F03F08E2
:103B3000B8F10A0F40EA86601CD901EB0C51BDE8D0
:103B4000F08100BFFCF5EEE8E2DDD8D3CFCBC7C3F0
:103B5000C0BDB9B6B4B1AEACA9A7A5A3A19F9D9BAA
:103B60009A9896959392908F8D8C8B89888786856D
:103B700084838281A0FB006800FB01F208EB42080D
:103B8000B8EB872807D5341858EB0104D5D5401C6D
:103B900051F10001D1E7341A78EB0104CDD4401E75
:103BA00071F10001C9E75FEA4C0C5FEA9C5C0DD142
:103BB00005D34FF0000001F00041BDE8F081BDE801
:103BC000F04170B5FFF7A8FE6DDBFFBEBDE8F04128
:103BD0004FF00000004970470000F87F10B591EAEF
:103BE000030F48BF83F000433FF552AB841A71EBDB
:103BF000030C07D212198CF0004C43EB0C03001B92
:103C000061EB0C01DFF8A4E14FEA1154A4EB135C63
:103C10001EEA430F18BF9EEA445F00F0B08023EA1B
:103C20006E03524221EA0451C3EB6E0338BF5B1EA0
:103C3000DCF1200E25D322FA0CFE10EB0E0043FA25
:103C40000CFE41EB0E01CCF1200E03FA0EFE10EB40
:103C50000E0051F10001CCF1200E29D412FA0EF21F
:103C600001EB0451BDE8104058BF7047401C1CBF19
:103C7000B2F1004F704700280CBF491C20F0010032
:103C8000704712EB020E43EB030218BF4FF0010E18
:103C90004EEA4202ACF1200CDCF11E0E54D943FA7C
:103CA0000CFE10EB0E0051F1FF31CCF11E0ED5D5FC
:103CB0000EF1010E12FA0EFE404141EB010101EB43
:103CC000445C5FEA5C5C10D910EBDE7001EB0451E0
:103CD00038BFBEF1004FBDE8104018BF7047002844
:103CE0000CBF491C20F00100704730D24FEAD42CA1
:103CF00011F5001124F400641BD0B1FA81F20B3AE3
:103D0000A41AA41ED2F12003914030FA03F3194300
:103D1000904001EBCC71002C01EB0451BDE8104048
:103D2000A8BF704701F1C0414FF0000001F0004111
:103D30007047B0FA80F310FA03F100D110BDE41A15
:103D4000173C4805C90AE4E701EB045110BD4910CE
:103D500001EB0451BDE810404FEA300002E04FF0A3
:103D6000000170474A0008BF0042F8D0B2F5001FBA
:103D700028BF704701F000414FF0000070479EEAF5
:103D8000445F07D011EA5E0FBDE8104004BF002178
:103D900000207047BDE8104070B5FFF7BDFD00BFC3
:103DA00040DFF63E83F00041104670470000E0FF20
:103DB00043004FEAD30C4FEA3C0C43401FBF40077F
:103DC0000CF1605113F0FE4F70471CF0006F03D1EF
:103DD00000200CF0004170470CF0004343EA5070A3
:103DE00010B540EACC0000F00EF800BF00000092D1
:103DF0004FEA0001FFF7DEBD4FF000414FF0000039
:103E0000A1F5002170470EF1020E2EF0030E5EF8B0
:103E1000044B244204D44FEA4102B2F17F4F11D83F
:103E20004FEA4003B3F17F4F0CD80ED14FEAD07C5C
:103E3000B2F17F4F0CEB4C0C0CF1020C08BF4CEBB9
:103E4000D17C04E04FF0080C01E04FEAD17C0CEB90
:103E50004C0324FA03F404F00704B4F1040C06D272
:103E60000EEB840CBDE810404CF0010C6047DFE81D
:103E70000CF0070802024FF00040A0F5800010BDD2
:103E80000846420018BFD2F1807288BF00F000409F
:103E900010BD4FF04070E1EE100A704700000000C6
:103EA00000000000010203040607080900000000EA
:103EB00001020304000000004FBB610567ACDD3F59
:103EC000182D4454FB21E93F9BF681D20B73EF3F41
:103ED000182D4454FB21F93FE2652F227F2B7A3CB9
:103EE000075C143326A6813CBDCBF07A8807703C72
:103EF000075C143326A6913CC4EB98999999C9BFE5
:103F0000711623FEC671BCBF6D9A74AFF2B0B3BF19
:103F10009AFDDE522DDEADBF2F6C6A2C44B4A2BFD9
:103F20000D5555555555D53FFF8300922449C23F45
:103F30006E204CC5CD45B73F513DD0A0660DB13F79
:103F4000EB0D76244B7BA93F11DA22E33AAD903F8B
:103F50004C5555555555A53F7751C1166CC156BFA7
:103F60009015CB19A001FA3EAD529C804F7E92BEB7
:103F7000C4B1B4BD9EEE213ED43888BEE9FAA8BDD6
:103F800000004054FB21F93F3163621A61B4D03D17
:103F90000000601A61B4D03D7370032E8A19A33BF0
:103FA0000000002E8A19A33BC14920259A837B3942
:103FB00000000000000000006E83F9A22915444EA5
:103FC000D15727FCC0DD34F5999562DB4190433C25
:103FD000AB6351FE61C5BBDE3A6E24B7E0D24D4201
:103FE000EA2E49061C92D1091CEB1DFE3EA729B101
:103FF000F53582E88444BB2E26709CE9417E5FB48F
:1040000039D69139F43953838B5F849C3B28F9BDB1
:10401000FF97F81F0F9805DE8B112FEF1F6D0A5ABF
:10402000CF7E366DB709CB27663F464F2DEA5F9EA0
:10403000C7BA27757BF1E5EBF739073DEA92528A5B
:10404000B15FFB6B085D8D1FA6F810111111813F48
:10405000D561C119A0012ABF7DFEB157E31DC73E3E
:10406000EB9C2B8AE6E55ABE7CD5CF5A3AD9E53D82
:10407000904000080000002078000000E8010008DF
:1040800008410008780000209007000004020008A2
:10409000000000000100000010000000000000000F
:1040A0000024F40068000000000900000000000087
:1040B0000000000000000000000000000000000000
:1040C00000000000000000000000000000000000F0
:1040D00000000000000000000000000000000000E0
:1040E0000000000000000000000000000000F03FA1
:1040F00000000000000000000000000000000000C0
:08410000000000000000F03F88
:04000005080001AD41
:00000001FF
